:020000040800F2
:1000000000100020F53D0008753D0008773D000810
:1000100000000000000000000000000000000000E0
:10002000000000000000000000000000793D000812
:1000300000000000000000007B3D00087D3D00083E
:10004000453E000800000000453E0008453E00080F
:10005000453E0008453E0008453E0008453E000874
:1000600000000000453E0008453E0008453E0008EF
:10007000453E0008453E0008453E000800000000DF
:10008000853D00080000000000000000453E00081B
:1000900000000000453E0008453E0008453E0008BF
:1000A00000000000453E000800000000453E00083A
:1000B0000000000000000000000000000000000040
:1000C00010B5064C2378002B07D1054B002B02D02E
:1000D000044800E000BF0123237010BD0800002089
:1000E00000000000A03E0008044B10B5002B03D018
:1000F0000349044800E000BF10BDC04600000000F6
:100100000C000020A03E0008002243088B4274D35C
:1001100003098B425FD3030A8B4244D3030B8B4208
:1001200028D3030C8B420DD3FF22090212BA030C11
:100130008B4202D31212090265D0030B8B4219D3F2
:1001400000E0090AC30B8B4201D3CB03C01A524112
:10015000830B8B4201D38B03C01A5241430B8B425A
:1001600001D34B03C01A5241030B8B4201D30B0343
:10017000C01A5241C30A8B4201D3CB02C01A52416A
:10018000830A8B4201D38B02C01A5241430A8B422D
:1001900001D34B02C01A5241030A8B4201D30B0216
:1001A000C01A5241CDD2C3098B4201D3CB01C01A30
:1001B000524183098B4201D38B01C01A524143093A
:1001C0008B4201D34B01C01A524103098B4201D328
:1001D0000B01C01A5241C3088B4201D3CB00C01A95
:1001E000524183088B4201D38B00C01A524143080D
:1001F0008B4201D34B00C01A5241411A00D2014632
:10020000524110467047FFE701B5002000F0F0F8BA
:1002100002BDC0460029F7D076E7704703460B437E
:100220007FD4002243088B4274D303098B425FD3EF
:10023000030A8B4244D3030B8B4228D3030C8B421B
:100240000DD3FF22090212BA030C8B4202D3121201
:10025000090265D0030B8B4219D300E0090AC30BD6
:100260008B4201D3CB03C01A5241830B8B4201D383
:100270008B03C01A5241430B8B4201D34B03C01A6C
:100280005241030B8B4201D30B03C01A5241C30AE4
:100290008B4201D3CB02C01A5241830A8B4201D355
:1002A0008B02C01A5241430A8B4201D34B02C01A3F
:1002B0005241030A8B4201D30B02C01A5241CDD2E4
:1002C000C3098B4201D3CB01C01A524183098B422F
:1002D00001D38B01C01A524143098B4201D34B0118
:1002E000C01A524103098B4201D30B01C01A52417B
:1002F000C3088B4201D3CB00C01A524183088B4202
:1003000001D38B00C01A524143088B4201D34B00EA
:10031000C01A5241411A00D201465241104670475C
:100320005DE0CA0F00D04942031000D34042534061
:1003300000229C4603098B422DD3030A8B4212D321
:10034000FC22890112BA030A8B420CD38901921153
:100350008B4208D3890192118B4204D389013AD090
:10036000921100E08909C3098B4201D3CB01C01A65
:10037000524183098B4201D38B01C01A5241430978
:100380008B4201D34B01C01A524103098B4201D366
:100390000B01C01A5241C3088B4201D3CB00C01AD3
:1003A000524183088B4201D38B00C01A5241D9D2EB
:1003B00043088B4201D34B00C01A5241411A00D26C
:1003C0000146634652415B10104601D34042002B68
:1003D00000D54942704763465B1000D3404201B5E7
:1003E000002000F005F802BD0029F8D016E770479C
:1003F0007047C0468446101C62468C46191C6346F2
:1004000000E0C0461FB501F043F8002801D40021E8
:10041000C8421FBD10B500F09BFF4042013010BD27
:1004200010B501F035F8002801DB002010BD0120D7
:1004300010BDC04610B501F02BF8002801DD0020EA
:1004400010BD012010BDC04610B500F0BDFF002852
:1004500001DC002010BD012010BDC04610B500F029
:10046000B3FF002801DA002010BD012010BDC046F6
:100470008446081C6146FFE71FB500F0C1F800285C
:1004800001D40021C8421FBD10B500F043F840421E
:10049000013010BD10B500F0B3F8002801DB0020DA
:1004A00010BD012010BDC04610B500F0A9F800280D
:1004B00001DD002010BD012010BDC04610B500F0C8
:1004C00051F8002801DC002010BD012010BDC046FD
:1004D00010B500F047F8002801DA002010BD012017
:1004E00010BDC0469E2110B5C905041CFFF7F0FFE2
:1004F000002803D1201C00F0C9FB10BD9E21201C48
:10050000C90500F0FFF900F0C1FB80231B069C46E3
:100510006044F2E770B542004E024C0045026D0A9D
:10052000120EC30F760A240EC90FFF2A0FD0FF2C1C
:1005300011D00120A24200D070BDB542FCD18B4247
:100540000DD0002AF8D12800451EA841F4E701206B
:10055000002DF1D1EBE70120002EEDD1E9E70020DD
:10056000EAE7C04670B54A004E02450244006D0AF3
:10057000240EC30F760A120EC90FFF2C15D0FF2AC6
:100580000ED0002C15D1002A01D1002E1CD0002D38
:1005900014D08B4227D00220013B1840013870BD97
:1005A000002EEED002204042F9E7002DFAD1FF2ABA
:1005B0000ED0002A0ED1002EEDD00BE00123013920
:1005C000994308000130EAE70020002DE7D0E2E778
:1005D000002EE7D18B42DED1944205DD0221581E68
:1005E00008400138DBE70024A24204DCB542D2D83F
:1005F0000020B542D3D2581E012398430130CEE7E4
:1006000030B5420044024D02C30F4800640A120E86
:100610006D0A000EC90FFF2A12D0FF280CD0002A45
:1006200012D1002819D1002D17D1002C2BD0022077
:10063000013B1840013826E0002DF0D0022022E0D6
:10064000002CFBD1FF281FD000281FD1002D1DD169
:100650000220013B1840013815E0002C0ED08B42DF
:10066000E5D10022904204DCAC42E0D80020AC424C
:1006700009D2581E01239843013004E001230139B7
:1006800099430800013030BD002DD7D18B42CED127
:100690008242E7DD0221581E08400138F3E7C046D8
:1006A000F0B54E4657464546DE46E0B543025B0A86
:1006B000450083B00F1C99462D0EC60F002D57D054
:1006C000FF2D24D08020DB00C00418430023814686
:1006D0009A469B467F3D7C027A00FB0F640A120E0D
:1006E000984623D0FF2A4BD0E30080240020E40466
:1006F0007F3A1C43AD186B1C474601935346774025
:100700003A000F2B48D87D499B00CB589F46002BC1
:1007100000D085E008339A46063B9B467C027A006F
:10072000FB0FFF25640A120E9846DBD1002C00D087
:1007300090E0524601231A4392460120DBE74C46E3
:1007400058461700022824D0032800D1CFE0002209
:10075000002301284DD15802D205400AFF0710435B
:10076000384303B03CBC90469946A246AB46F0BD28
:10077000002B5BD104239A46033B00259B46AAE746
:10078000FF35002C60D1524602231A4392460220C4
:10079000B1E7FF220023DEE74B461B0C9C464B468D
:1007A0002604360C180461463300220C6446000C03
:1007B00043434E435043544380191A0C1218964237
:1007C00003D9802149028C4664441B041B0C10048D
:1007D000C01883015E1EB341800E1843130C1B1911
:1007E0009B0103431C00230179D5012362081C40AF
:1007F0001443019A7F32002A4DDD630704D00F2392
:100800002340042B00D00434230103D53C4B019A30
:100810001C408032FE2ABCDCA3015B0AD2B29AE7FC
:100820000C239A46093BFF259B4654E7180001F02C
:1008300007FD4A46431F76259A4000236D429146A4
:100840002D1A9A469B4646E7524603231A43924680
:10085000032050E7200001F0F3FC431F2D1A9C40B9
:10086000763D002047E780230027DB03FF2272E765
:10087000424666E74C463200584662E780234A46C5
:10088000DB031A4222D01C4220D123435B025B0AC5
:100890004746FF225FE701239A1A1B2A21DC230027
:1008A0000199D3409E318C401A0023005C1EA34165
:1008B00013435A0704D00F221A40042A00D00433ED
:1008C0005A0111D49B015B0A002244E780234A4667
:1008D000DB0313435B025B0A3700FF223BE7019512
:1008E00087E70022002336E70122002333E7802335
:1008F000DB0323435B025B0AFF222CE7083F00086F
:10090000FFFFFFF7F8B54746CE464400C20F80B55B
:1009100047024802400A8446664648007F0A240E81
:10092000F60025009046FB00000EC90FB146FF28D7
:1009300000D185E001267140261A914257D0002E41
:1009400043DD002800D07FE04946002900D1AAE01D
:10095000013E002E00D0F7E05B1A5A0100D48BE074
:100960009B019C09200001F06BFC05388440854206
:1009700000DDD3E0451B230020200135EB40451B63
:10098000AC40621E94412343072400251C400122F1
:1009900041460A40002C04D00F211940042900D000
:1009A0000433590100D480E00135ECB2FF2D00D0B2
:1009B000A3E0FF2400235B02E405580AD20720438A
:1009C00010430CBC90469946F8BD002E74D1601CB3
:1009D000C0B2012800DCA7E04A469C1A620100D59B
:1009E000B6E0002CBED1002200240023E3E7002E55
:1009F00000DC85E0002846D0FF2C49D08022484604
:100A0000D2041043814601221B2E09DC20204C46D3
:100A1000801B84404A462000F240441EA04102430D
:100A20009B185A0128D50135FF2D00D1A8E00122DD
:100A3000072494491A405B080B4013431C40A6E767
:100A4000002E00D078E775E7FF2C54D0802249466D
:100A5000D2041143894601221B2E09DC202148467D
:100A6000891B88404A460100F240481E81410A43E2
:100A70009B1A5A0100D573E7012241460A405907E3
:100A800000D089E711E04846002858D1FF2C0CD14E
:100A9000DB08002B00D18CE78020C00303435B02FE
:100AA0005B0AFF2487E7FF2C25D0DB08FF2DF0D061
:100AB0005B025B0AECB27EE7002C4DD0FF2818D019
:100AC0008024E404724223431B2A00DDC4E01C009E
:100AD0002025D440AA1A93405A1E934123434A46E4
:100AE0000500D31A884638E7721CF8D0F243FF2875
:100AF000EAD10A004B46FF25D7E79B015B0A5AE77C
:100B0000002E41D1651CE9B2012945DDFF2D00D140
:100B10004FE707244B445B081C4038E707225A4B39
:100B20002D1A2340144032E7002C1DD1002B7AD11E
:100B30004B46002B00D191E00A000025B5E7013EAD
:100B4000002E19D14B446CE7FF2C84D1FF25ACE774
:100B50004A468846D41A05E7002BC5D10A00FF286B
:100B6000C8D005004B46A0E7002B49D14B46002BCF
:100B700077D00A00FF2598E7FF2C00D043E787E7EE
:100B80000A00FF24002316E7002C15D1002B57D1B3
:100B9000FF28E6D14B467BE7002C20D1002B57D015
:100BA0004946002953D04B445A0168D50724364A98
:100BB0001C4001251340EAE6FF28EBD08022D20436
:100BC000764213431B2E53DC2025AD1B1A00AB408D
:100BD000F2405C1EA34113434B44050021E7002B68
:100BE000D8D04946002900D152E78021C9030F42DD
:100BF00000D14DE76046084200D049E74B4647E741
:100C00004846FF25002800D14FE78022D203174233
:100C100004D06046104201D14B468846012241462D
:100C2000FF250A4041E7484600281FD01A1A500104
:100C300020D54A460724D31A1C4088460025A6E63C
:100C4000741CC9D0F643FF28BCD14B4620E7994617
:100C50004B460025DB082BE7012340E70022002359
:100C6000A9E680230022DB03FF24A4E600251CE77D
:100C70000123B1E7002AF1D013000025FCE600258E
:100C8000FAE6C046FFFFFF7DFFFFFFFB4102420087
:100C9000C30F490A120E00207E2A0DD99D2A0CD8B6
:100CA000802000040143952A0ADC9620821AD14054
:100CB0004842002B00D108007047034A9818FBE710
:100CC000963A9140F4E7C046FFFFFF7F70B5041EDF
:100CD00034D001F0B5FA9E22121A962A07DCD2B25D
:100CE00008282EDD083884406002400A21E0992A55
:100CF00009DD030021001B3399404B1E9941052358
:100D00001B1ADC400C43052801DD431F9C402300D7
:100D10000D490B40650709D00F252C40042C05D048
:100D200004335C0102D59F220B40121A9B01580A22
:100D3000D2B24002D205400A104370BD002200200A
:100D4000F7E76002400AF4E7FFFFFFFBF0B5574604
:100D5000DE464E464546E0B5834607000E03480092
:100D600085B092461C00360B400DCD0F002800D1F7
:100D70009DE0954B984239D08023F6001B041E431A
:100D8000924A7B0F33439946944603006344009391
:100D900000230026FF00029323031B0B98466300E9
:100DA000E40F52465B0D019400D1B3E086498B42BB
:100DB00000D19EE04246D100802212040A435146EF
:100DC000490F11438B46814952468C460099634432
:100DD000CB1A0021D20000932B0063409A460F2EBD
:100DE00000D905E17A4BB6009B599F465B463343D9
:100DF000994600D0B8E0022308260027009002930D
:100E0000CAE7CB463A0002990195019B9A4602290E
:100E100027D0032900D180E2012944D06D49009BED
:100E20008C4663441C00002C38DD530700D013E2CD
:100E3000D2085B46DB0109D55946674B19408B4602
:100E40008021C9008C46009B63441C00634B9C427C
:100E500007DC5B4664055F075B0217431B0B620DF3
:100E600002E000230027584A00211B031C0B0B0D36
:100E70001B05234314055A4A380013401C435346AC
:100E80006400DB0764081C43210005B03CBC9046AD
:100E90009946A246AB46F0BD0122524201231B1BDC
:100EA000382B00DCADE1002200230027DCE75B46A5
:100EB000334399465ED0002E00D18AE1300001F024
:100EC000BFF903000B3B1C2B00DD7BE11D22D31A75
:100ED0005A460100DA4008398E4013005F4633431A
:100EE00099468F403F4B00261B1A00930023029324
:100EF00052E7414653460B433B499B468C46009B79
:100F0000634400935B46002B3BD1022300221E4327
:100F1000022161E7434613439B4637D04346002BEB
:100F200000D162E1404601F08BF903000B3B1C2B22
:100F300000DD53E102004146083A914088461D21F8
:100F4000CB1A5146D9400B0041460B439B465346B2
:100F500093401A00009B25499C46604403008C4640
:100F600063440093002137E70323B14600900C2629
:100F7000029311E700230093013304260027029314
:100F80000AE70323C3461E43032125E701331E431B
:100F90000022012120E700239A46802300271B031B
:100FA000094A61E7802349461B03194200D1E2E068
:100FB0005946194200D0DEE00B431B0317001B0B00
:100FC000A246014A50E7C046FF07000001FCFFFFB0
:100FD000483F0008FF030000FFFFFFFEFE07000080
:100FE000FFFF0F800DFCFFFF01F8FFFFF303000080
:100FF000D94500D9CBE000D1C6E03C0048460027E7
:10100000009B013B00935B46160E1B021E4313021E
:10101000984633041B0C9946310C0191FFF7FAF8FE
:101020004A4642430B04210C050019438A4207D962
:101030008919013D8E4203D88A4201D9851E89193A
:10104000881A0199FFF7E6F809048C464A462104FC
:1010500064464243090C030021438A4204D989199A
:10106000013B8E4200D8F1E02D041D43AB464346C0
:10107000891A4246280C12041D0C5B46140C2200EF
:101080001B041B0C5A4303946B434443029568436F
:101090001B19150CEB189C4203D980246402A4464A
:1010A00060441C0C15041B042D0C20185D19814292
:1010B00077D373D00C1AA24A7D1BAF42BF4194462E
:1010C000009B7F426344E01B1C00864200D1DBE0B2
:1010D0000199FFF79FF84A4642430B04290C070089
:1010E00019438A4207D98919013F8E4203D88A429F
:1010F00001D9871E8919881A0199FFF78BF809040D
:101100004A46894629044D464243090C03002943B7
:101110008A4207D98919013B8E4203D88A4201D9F4
:10112000831E89193F04891A3A00039F1A43380025
:1011300013041B0C584381460298150C6F4343431C
:1011400045434846000C8446DB1963449F4203D95B
:10115000802040028446654448461F0C00041B045E
:10116000000C7D191818A94200D284E000D17FE05C
:1011700001231A4357E680234A461B0313431B03EC
:101180001B0BAA466F4A6FE6BA4200D935E74B46B9
:10119000DC0758087B081C43FF0734E70024AF42F4
:1011A00089D247444745A4415B466442A419641868
:1011B000013BA6421ED2A0426DD800D1B6E0241A4F
:1011C0009B4678E703005A46283B9A400027914601
:1011D00088E6584601F034F8203072E603005246A3
:1011E000283B9A4093460022B4E6504601F028F886
:1011F00020309AE6A642E2D1B845DCD9341A9B46A3
:1012000059E71F2B65DC504C0099A4465C466144AD
:1012100008008C4011008240D940501E82410C438E
:1012200014435A46DA401300620709D00F222240C5
:10123000042A05D02200141D9442894149425B18BA
:101240001A0262D50122002300270DE68A4200D847
:101250000AE7831E891907E70F231340042B00D1E7
:10126000E6E5171D9742924153429B44FA08E0E598
:10127000002800D1D7E57118531EB14227D3A942E7
:1012800015D358D01A0073E7002B00DC04E60123C5
:1012900000229B44CDE502234744474589415B42F8
:1012A0009C46494289190C19E344241A03E7434632
:1012B0005F0047459B41B8465B429E19023A891937
:1012C000A94200D054E7404500D051E7ABE51A00F1
:1012D000F6E71F215F4649420C1BE740202B07D051
:1012E0001A49009B8C46634418005B4683401A43AE
:1012F000501E82413A4307270023174009D00F218F
:10130000002311401400042995D122005F075B02DD
:101310001B0BD20817430022A6E5802359461B0366
:101320000B431B0317001B0B064A9DE5BD42B2D8B9
:101330009B460024BFE68045B9D31A00C3E7C046E8
:10134000FF030000FF0700001E0400003E04000031
:10135000F0B54F464646D6468446C0B58046194E3F
:1013600018030F034D00000B5C0082463F0B6D0D10
:10137000C90F9146640DDB0F0120B5420AD0B4427B
:1013800003D0A54201D157450CD01CBC90469946CC
:10139000A246F0BD66463E43F7D1AC42F5D1544675
:1013A0001443F2D10120C845EFD1994207D0002D56
:1013B000EBD163461F433800471EB841E5E70020E4
:1013C000E3E7C046FF070000F0B54F464646D64665
:1013D0004D00C0B50E03C90F8A462C491F035C009F
:1013E0008046360B6D0D91463F0B640DDB0F8D4231
:1013F0001ED08C4216D0002D1ED130438446002CC6
:1014000001D13A4323D06246002A1AD09A4529D006
:10141000514602200139084001381CBC90469946CB
:10142000A246F0BD39001143E5D002204042F4E766
:101430003043FAD1AC420FD0002C0FD13A43E7D061
:101440000CE00122013B934318000130E5E76346BD
:101450000020002BE1D0DBE73A43E6D19A45D7D113
:10146000A542D5DCA54205DBBE42D1D808D000207C
:10147000BE42D2D250460123013898430130CCE716
:10148000C845C5D80020C845F4D3C6E7FF0700000B
:10149000F0B54F464646D6464D00C0B50E03C90FBF
:1014A0008A462E491F035C008046360B6D0D91461F
:1014B0003F0B640DDB0F8D4218D08C4211D0002DF4
:1014C00018D130438446002C1ED13A431CD16346C8
:1014D0000020002B30D0514602200139084001384D
:1014E0002AE039001143EAD0022025E03043FBD145
:1014F000AC4226D0002C26D13A4324D151460220BA
:1015000001390840013817E06246002A0FD09A4599
:10151000E1D1A54205DBBE42DDD819D00020BE4294
:101520000AD25046012301389843013004E00122D9
:10153000013B9343180001301CBC90469946A246DB
:10154000F0BD3A43D0D19A45C5D1A542C3DCE0E70E
:10155000C845C0D80020C845E3D3EDE7FF07000029
:10156000F0B55746DE464E464546E0B58346060092
:101570000F03480087B092461D003F0B400DCC0F73
:10158000002800D16FE0DE4B984238D08023FF0066
:101590001B041F43730F3B430193DA4B002799460B
:1015A00000239B46F60081442B0369001B0B524627
:1015B0009846490DED0F002900D185E0D04B9942A6
:1015C00000D173E04346DA0080231B0413435246E4
:1015D000CC48520F84461343524600206144D20047
:1015E00089442100694000918C46012149448A4682
:1015F0000F2F00D990E0C449BF00CF59BF465B46CA
:101600003B43019300D06AE102230827002681466C
:101610009B46C9E732005846019B6146009102286B
:1016200000D175E0032800D1FEE1012800D02CE1B3
:1016300000230027002600253F032A0D3F0BB34857
:1016400012053A4302401B051343009A5B00D10781
:101650005B080B433000190007B03CBC904699462C
:10166000A246AB46F0BD5B463B43019300D12FE160
:10167000002F00D1A5E1380000F0E2FD03000B3B94
:101680001C2B00DD96E11D22D31A5A460100DA40D8
:101690005E4608398F4013008E403B4301939C4BBC
:1016A00000271B1A994600239B467DE74146534677
:1016B0000B4393498C46E144002B00D01AE10222EF
:1016C0000220174300228CE7134300D10DE143466B
:1016D000002B00D181E1404600F0B2FD02000B3A40
:1016E0001C2A00DD72E10100434608398B40984610
:1016F0001D239A1A5346D3401A00434613435246B9
:101700008A404946081A824989468144002068E790
:101710007B4B002700268EE7140C1204120C1100DC
:10172000370C3604350C794328008C462E00604374
:101730006044834656432100300C80465846794326
:1017400040440291844506D98846802149028C464E
:10175000E044414602913604010C360C00048B46ED
:1017600081191E0C1B041B0C0391190079438C4634
:10177000280075436544A8465843050C4544774303
:10178000A94203D9802149028C466744290C8C4622
:1017900039000004000C2D042D186144AB44059160
:1017A0005946049101990F043F0C080C390051432C
:1017B0004243904602008C46090C8B4662437C43B0
:1017C00044445C44A04503D98021490288464244F0
:1017D000210C884661460904090C8C46390059439E
:1017E000434370437E430F0CF6182404BE1964442F
:1017F00042448C46B34203D980235B02984640445E
:10180000029B61469846049B370443449B46AB4584
:10181000AD416B420D0405992D0C8C467F19674430
:10182000FD18A8465D462D19A542A4419346644281
:10183000A446C344DC448F42BF4198459B41934535
:101840009241A445A4415B427F421F43360C524261
:101850006442BF192243BF18624638184302D20DB2
:10186000039913436A020A43501E82416146ED0DFB
:101870002A434E023243D90100D4B3E00126500876
:1018800032400243DE0732435B08224C5444002CB2
:1018900062DD510709D00F201040042805D0101D2B
:1018A0009042924152429B180200D90104D58024F3
:1018B0001948E400034054441848844200DD27E7F7
:1018C0005E075B02D2081F0B630516435B0DB2E691
:1018D000002399460133042700269B4664E6032330
:1018E000019781460C279B465EE6012201201743A3
:1018F000002276E6032303201F43434671E6C046D9
:10190000FF07000001FCFFFF883F0008FFFF0F807A
:101910000DFCFFFFFF030000FFFFFFFEFE070000BE
:101920000023802700933F030026434B83E6019B5F
:101930003200A446584670E6AC466EE68027019910
:101940003F0339422DD03B422BD11F433F033F0B76
:1019500000951600384B6EE601252D1B382D00DD55
:1019600066E61F2D40DC35481C00504416008240BE
:101970008440EE40501E824134431443EB406207E2
:1019800009D00F222240042A05D02200141D9442BF
:10199000804140421B181A023ED501230027002631
:1019A00049E68027019B3F031F433F033F0B009401
:1019B000214B40E603005A46283B9A4000260192FC
:1019C0006DE6584600F03CFC203057E603005246D6
:1019D000283B9A401300002293E6504600F030FC6A
:1019E00020307BE6CA4650E71F201E004042041B01
:1019F000E640202D03D0124C5444A3401A43501EFD
:101A00008241324307260027164009D00F200023C9
:101A1000104014000428B9D122005E075B021F0B9E
:101A2000D2081643002306E680273F031F433F03E7
:101A30003F0B1600004BFEE5FF0700001E040000F0
:101A40003E040000F8B557464E464546DE460C00BB
:101A50000903E0B5490A460F5F0031431E03DB0F5F
:101A6000760A9B46530F3343C84E6500C000E40F0F
:101A7000D2006D0DA24681467F0D9C469046B7422E
:101A800000D1B9E05B46012673409B46EE1BA3459F
:101A900000D183E0002E63DD002F00D0B1E063466B
:101AA000134300D123E1731E002B00D0BAE1861A44
:101AB0006346B04280410125C91A4042091A0B020F
:101AC00000D447E149024B0A98464346002B00D117
:101AD00089E1404600F0B4FB0300083B1F2B00DD0A
:101AE0007CE120223000D21A4146D04099400200C9
:101AF0009E400A439D4200DD6AE15D1B6B1C1F2B6B
:101B000000DD94E1202110003500C91A8E40DA4032
:101B10008840DD40711E8E411100072228430025B8
:101B200006433240002A09D00F233340042B05D04E
:101B3000331DB342B641764289191E000B0200D410
:101B40003DE26A1C914B55056D0D9A4200D119E199
:101B50008F4AF6080A40570752023743120B9BE0A0
:101B6000002E00D0C5E06E1C7605760D012E00DC3F
:101B700048E16746861ACB1BB042BF417F42B84658
:101B80001F004346FF1A3B00B8461B0200D55FE129
:101B900037439AD100220024002579E0002E00DC92
:101BA000FAE0002F00D18DE0784B9D4267D0802372
:101BB00067461B041F43BC46382E00DC52E16346D7
:101BC00013435A1E93411E18864280414042091811
:101BD0000B0200D4BEE06D4B01359D4200D1D2E036
:101BE0006B4A73080A4001210E401E435108D30777
:101BF00007221E43324095E71E00164300D045E7FA
:101C000040E7624B9D423AD0802367461B041F4346
:101C1000BC46382E00DDEBE01F2E00DC3AE133003D
:101C20006746203BDF403B00202E05D04027BF1BEE
:101C30006646BE40324390464646721E9641334346
:101C4000DAE0002B00D114E26346134300D168E1CF
:101C500080234E07C008C9081B030643194208D059
:101C60006046C008184204D163460100D2085E07EE
:101C70001643F3009946C900720F444D11434B4679
:101C8000DE08424B4F073743CA089D4200D16EE041
:101C900012036D05120B6D0D00211203130B0A0DBB
:101CA00012051A433B4B2D0513402B435B00E40701
:101CB0005B082343380019003CBC90469946A24675
:101CC000AB46F8BD6346134311D0731E002B00D002
:101CD00007E1861886428041614440420918012587
:101CE0000B0237D502257BE73E0061469146350061
:101CF000C5E75C46002D00D0E1E00B000343F3D0C4
:101D0000731C00D1ACE1214B9F4200D13AE1F34377
:101D1000382B00DD6FE11F2B00DD8CE120250E004C
:101D2000ED1AAE40B0460600AA46DE4045463543B1
:101D30002E005546D940A8406346451EA8415B1A6F
:101D40009C463043161AB242924163465242991A57
:101D50003D00B4E607223240002A00D0E4E60B4BF7
:101D6000F6084F073743CA089D4200D090E73B0072
:101D7000134300D1A6E180231B031A431203120B65
:101D8000024D89E715000022002785E7FF070000C4
:101D9000FFFF7FFFFFFF0F80002E00D0C7E06B1C0E
:101DA0005E05760D012E00DCF0E0C84DAB4200D19F
:101DB000B9E085180A0085428941624449425118B8
:101DC0000722CE076D082E43490832401D00A9E6C0
:101DD000BF49ED1A114007223240A3E632002838ED
:101DE0008240002686E6300000F02AFA203073E6B2
:101DF000634613435A1E9341C61AB0428041404283
:101E0000091A5CE60E00674606431743002D5ED1B3
:101E1000002E00D0F3E0002F00D11EE15C466146A9
:101E200091462CE7A94FBE427BD01E00F1E6100080
:101E30001F3DE840202B03D04021CB1A9A40164387
:101E4000731E9E410722064332400021002583E78E
:101E5000161A6346B2428041591A40420B1A9846FC
:101E60005C4632E61F2E00DDABE02027BB1B9A4606
:101E700063465746BB40994613004F46F3401F4305
:101E80003B005746BA40571EBA4113436246F240E0
:101E9000891898E62027BB1B9A4663465746BB40E5
:101EA000994613004F46F3401F433B005746BA4044
:101EB000571EBA4113436246F240891A9CE7834B8E
:101EC0009F425FD080252D047342294320E7002ED6
:101ED0000CD1002F00D1D0E05C46614691467B4D8D
:101EE000CDE67A4FBE421CD01E0065E6002F18D00A
:101EF000C0084E0706438020C9080003014208D0ED
:101F00006346DC08044204D12100DA46D2085E07A9
:101F10001643F300994601245346C900720F11433A
:101F20001C406A4DABE61D0000220027B4E6002DE0
:101F300059D10B00034300D1D6E6731C00D1B2E0A7
:101F4000624B9F421ED0F343382B6FDC1F2B00DD0A
:101F500097E020250E00ED1AAE40B0460600AA46D6
:101F6000DE40454635432E005546A840D940451E23
:101F7000A8418C440643B6189642924151426144AE
:101F80003D0025E63D006146914678E60B0003439F
:101F9000002D00D055E6002BF5D06346134300D149
:101FA0006DE686188642804161444042091800224D
:101FB0000B0200D4D0E6464B01351940B2E5B146DC
:101FC0005DE633006746203BDF403B00202E05D016
:101FD0004027BF1B6646BE40324390464646721EAF
:101FE00096413343EFE5394B9F42CBD080252D04FA
:101FF00073422943A8E70843411E8841A2E6002F07
:1020000000D13CE66346861ACF1AB0429B415B4240
:10201000FB1A98461B024ED5161A6346B2429241ED
:10202000591A5242891A5C4600227BE501430E0090
:10203000711E8E419FE71D000E00203DEE40B04610
:10204000202B04D04025EB1A99400843814648468E
:102050004346411E8841184374E60022002417E6D7
:10206000161A6346B2429241591A5242891A3D00E9
:1020700025E561469146154D01E6802200241203B4
:1020800079E61D000E00203DEE40B046202B04D026
:102090004025EB1A9940084381464E464346711E3F
:1020A0008E411E4367E7861896429B4161445B421E
:1020B000C9183D008CE547463743CED0072241463C
:1020C000324049E600273A00E6E5C046FF07000037
:1020D000FFFF7FFF10B5041E25D000F0B1F8144BB0
:1020E0001B1A5B055B0D0A2812DD0B3884400022A9
:1020F0002403240B0021100024030A0D240B1205D5
:1021000022430C4C1B05224013435B00590810BDB1
:1021100002002100153291400A000B21081AC44028
:102120002403240BE6E7002300240022E2E7C04654
:102130001E040000FFFF0F80F0B54C00640D0B0380
:10214000621C5B0A460F5205C90F1E43C500520DA3
:10215000012A29DD374BE718FE2F1CDC002F3BDD61
:102160008001431E98410722F3006D0F03432B4368
:102170001A40002A04D00F221A40042A00D0043347
:102180008022D2041A4024D00137FAB2FF2F02D0A5
:102190009B01580A01E0FF2200204002D205400ABC
:1021A000C90710430843F0BD3543002C04D1002D6E
:1021B0000AD100220020F0E7002DECD08020C003DF
:1021C0003043FF22E9E7002400235B02580AE2B211
:1021D000E3E7DB083C00F8E73B001733F3DB802341
:1021E0001B0433431E26F61B1F2E14DD022252420F
:1021F000D71B1A00FA401700202E04D00E4A94462E
:102200006444A3401D432B005D1EAB4107223B43AA
:102210001A400027ADE7094A2800A21895409340CC
:102220006C1EA541F04007222B4303431A400027B0
:102230009FE7C04680FCFFFFA2FCFFFF82FCFFFF80
:102240001C2101231B04984201D3000C10391B0AE6
:10225000984201D3000A08391B09984201D30009AA
:10226000043902A2105C40187047C0460403020201
:1022700001010101000000000000000010B5040091
:1022800000F086FCFA218900FDF73EFF00F072F8AD
:10229000012000222100404200F032F8002010BD51
:1022A00010B5064A136810210B4313600020FFF796
:1022B000E5FF01F00DFD002010BDC04600200240EA
:1022C000024A1368013313607047C046580000206B
:1022D000014B18687047C0465800002030B583B0E5
:1022E0000190FFF7F5FF0500019C631C00D001344D
:1022F000FFF7EEFF401BA042FAD303B030BD000051
:1023000070B5002811DB8408134DC034A400625955
:1023100003231840C000FC331E008640B2438901ED
:102320000B4083401343635170BDC0B20F22024083
:10233000083A920806329200084BD3185D680324CD
:102340002040C000FF2214008440A54389010A40B8
:1023500082402A435A60E7E700E100E000ED00E038
:102360001F2318401E3B8340014A13607047C0463C
:1023700000E100E001380A4B98420FD8094A50604A
:102380000948036A1B021B0AC02109060B430362AA
:102390000023936007331360002070470120FCE79F
:1023A000FFFFFF0010E000E000ED00E0F0B5C646E2
:1023B00000B582B0002338E0032600E00026AE40DE
:1023C00035003D430234A400554EA551554C2568B7
:1023D0004246D4432E0026404A68D20302D54246E4
:1023E00015432E004F4D2E606D682E0026404A6822
:1023F000920302D5424615432E004A4D6E60AD68E9
:102400002E0026404A68D20202D5424615432E00CD
:10241000444DAE60ED682C404A68920202D54246B7
:102420002A4314003F4AD46001330A681400DC4098
:1024300071D001259D402A409046F5D04C68022C71
:1024400001D0122C0ED1DC080834A400275807262E
:102450001E40B6000F22B24097430A69B2401600F0
:102460003E43265002685F0003242600BE40F64328
:10247000324094464A681440BC40624614430460AB
:102480004C68621E012A03D9112C01D0122C10D1E4
:1024900084683440A446CC68BC40624614438460DF
:1024A0004468AC434A681209012515409D40254304
:1024B0004560C46826408C68BC403443C4604A68A8
:1024C000D200B1D5184DAE6901242643AE61AD6985
:1024D0002C400194019C9C08A51CAD00104EAF59E6
:1024E00003251D40AD000F26AE40B7439026F605EC
:1024F000B04200D162E70D4EB04208D00C4EB0425F
:1025000007D00C4EB04200D156E7052657E701260A
:1025100055E7022653E702B004BC9046F0BDC04622
:102520000000014000040140001002400004004887
:1025300000080048000C0048002A01D18162704761
:102540008161FCE782B0074A9169012319439161D7
:10255000926913400193019B034A1368184310606A
:1025600002B07047001002400000014070B582B018
:1025700004000368DB0726D5AE4B5A680C231340D2
:10258000042B18D0AB4B5A680C231340082B0ED0E9
:102590006368012B3CD0002B51D1A64B1A68A64989
:1025A0000A401A601A68A5490A401A6036E0A14B31
:1025B0005B68DB03ECD59F4B1B689B0303D563680B
:1025C000002B00D1ECE123689B0773D5994B5B6826
:1025D0000C221A425DD0974B5A680C231340082BEB
:1025E00053D0E368002B00D186E0924A13680121A2
:1025F0000B431360FFF76CFE05008E4B1B689B07B7
:1026000071D4FFF765FE401B0228F6D90320CAE10A
:10261000884A116880235B020B4313606368002BB8
:1026200025D0FFF755FE0500824B1B689B03CAD4DB
:10263000FFF74EFE401B6428F6D90320B3E1052BBB
:1026400009D07C4B1A687C490A401A601A687B4999
:102650000A401A60E2E7774B19688022D2020A43E7
:102660001A601968802252020A431A60D6E7FFF7FF
:102670002FFE05006F4B1B689B03A4D5FFF728FEB8
:10268000401B6428F6D903208DE16A4B5B68DB03AD
:10269000A7D4684B1B689B0704D5E368012B01D0C6
:1026A000012080E163490B68F82293432269D2003C
:1026B00013430B6023681B0744D5E369002B2ED01E
:1026C0005C4A536A01210B435362FFF701FE050088
:1026D000584B5B6A9B0735D4FFF7FAFD401B022875
:1026E000F6D903205FE153490B68F822934322692E
:1026F000D20013430B60DDE74E4A136801218B4380
:102700001360FFF7E5FD05004A4B1B689B07D1D519
:10271000FFF7DEFD401B0228F6D9032043E1454ABE
:10272000536A01218B435362FFF7D2FD0500414BF1
:102730005B6A9B0706D5FFF7CBFD401B0228F6D945
:10274000032030E123685B0700D47FE0394BDB696D
:10275000DB001DD4374AD169802040050143D16197
:10276000D36903400193019B0125354B1B68DB05B1
:1027700010D5A368012B21D0002B36D12D4B1A6A1E
:1027800001218A431A621A6A03318A431A621AE0E3
:102790000025EAE72A4A116880235B000B43136097
:1027A000FFF796FD0600264B1B68DB05E1D4FFF71B
:1027B0008FFD801B6428F6D90320F4E01D4A136ABC
:1027C00001210B431362A368002B24D0FFF780FD87
:1027D0000600184B1B6A9B0736D4FFF779FD801B58
:1027E000184B9842F5D90320DDE0052B09D0114B99
:1027F0001A6A01218A431A621A6A03318A431A62E9
:10280000E1E70C4B1A6A04210A431A621A6A033977
:102810000A431A62D7E7FFF75BFD0600054B1B6A08
:102820009B0711D5FFF754FD801B064B9842F5D945
:102830000320B8E000100240FFFFFEFFFFFFFBFF98
:102840000070004088130000012D33D02368DB06A0
:1028500010D56369012B33D0053351D1544A536BE2
:1028600004218B435363536BF4318B43A169C9003B
:102870000B435363236A002B00D193E04C4A516809
:102880000C220A40082A00D18FE0022B4FD0484A80
:10289000136848490B401360FFF71AFD0400444BCE
:1028A0001B689B017AD5FFF713FD001B0228F6D9A0
:1028B000032078E03E4AD3693F490B40D361C5E726
:1028C0003B4B5A6B04210A435A635A6B03390A4340
:1028D0005A63FFF7FDFC0500354B5B6B9B0706D485
:1028E000FFF7F6FC401B0228F6D903205BE03049D5
:1028F0004B6BF8229343A269D20013434B63B9E7B1
:102900002B4B5A6B04210A435A635A6B03398A438F
:102910005A63FFF7DDFC0500254B5B6B9B07A9D5D0
:10292000FFF7D6FC401B0228F6D903203BE0204AE3
:10293000136820490B401360FFF7CAFC05001C4BCD
:102940001B689B0106D5FFF7C3FC401B0228F6D984
:10295000032028E0164BDA6A0F218A43E16A0A4312
:10296000DA625A6815490A40A16A606A01430A435B
:102970005A601968802252040A431A60FFF7A8FCC3
:1029800004000B4B1B689B0106D4FFF7A1FC001B46
:102990000228F6D9032006E0002004E0002002E02F
:1029A000012000E0002002B070BD0120FBE7C0461E
:1029B00000100240FFFFFFFEFFFFFFEFFFFFC2FF1F
:1029C00030B589B004AA194B180032C832C21100C0
:1029D00002680A606A46103313CB13C21B68136087
:1029E000134B5A680C231340042B03D0082B04D03C
:1029F000104800E0104809B030BD910C0F23194079
:102A000004A8445C0A49C96A0B406946C95CD303FF
:102A100004D50948FDF778FB6043ECE763011B1B15
:102A20009801C01AC00004192002E4E7B83E00086B
:102A30000010024000127A000024F40070B5050076
:102A40000C004D4B1A68012313408B420BD24A49AC
:102A50000B680122934323430B600B681A40A24288
:102A600001D0012070BD2B689B0706D5434A5368EF
:102A7000F0218B43A9680B4353602B68DB074BD5D0
:102A80006B68012B20D0022B24D03C4A126892079D
:102A90006FD53A494A680320824313434B60FFF7DE
:102AA00017FC06006B68012B1AD0022B26D0334B83
:102AB0005B680C221A422FD0FFF70AFC801B304BB8
:102AC0009842F4D90320CDE72C4A12689203E0D44F
:102AD0000120C7E7294A12689201DAD40120C1E730
:102AE000264B5A680C231340042B15D0FFF7F0FB3C
:102AF000801B234B9842F3D90320B3E71F4B5A683E
:102B00000C231340082B07D0FFF7E2FB801B1C4B64
:102B10009842F3D90320A5E7174B1A680123134005
:102B2000A3420BD914490B680122934323430B6042
:102B30000B681A40A24201D0012093E72B685B0783
:102B400006D50E4A53680F490B40E9680B435360A2
:102B5000FFF736FF094B5A6812090F2313400A4A40
:102B6000D35CD840094B18600020FFF787FB00209A
:102B700078E7012076E7C0460020024000100240BE
:102B800088130000FFF8FFFFF03E0008000000205F
:102B9000014B18687047C0460000002030B5036A3A
:102BA000046A0125AC4304628469EF35AC43120129
:102BB00022430A24A34319438261016230BD00000D
:102BC00070B5046A1025AC4304628569046A084E36
:102BD000354012022A43074D2A401B071B0C1343A2
:102BE000A022944309010A4022438361026270BD1E
:102BF000FFFCFFFFFF0FFFFF30B5036A1024A34364
:102C000003628469036A054D2C4012032243A02409
:102C1000A343090119438261016230BDFF0FFFFF29
:102C200070B5046A0B4D2C400462C469056A032622
:102C3000B4432243F024A2431C01FF2323401A4340
:102C4000054B2B400902A024240121401943C261F5
:102C5000016270BDFFFEFFFFFFF5FFFF70B5046A64
:102C60000B4D2C400462C569046A0A4E35401202BD
:102C70002A43094D2A401B071B0C1343074A2240D5
:102C80000903A024240221401143C361016270BDE5
:102C9000FFEFFFFFFFFCFFFFFF0FFFFFFF5FFFFFE7
:102CA0008368702293430722114319438160704760
:102CB00070473C23C35C012B1DD03C230122C2542E
:102CC000042910D006D9082910D00C2911D1036885
:102CD0001B6C03E000290CD103685B6B3C220021D4
:102CE00081541800704703689B6BF7E70368DB6B40
:102CF000F4E70023F2E70223F3E7704770477047D9
:102D000010B5040003681A6992070FD5DA689207B4
:102D10000CD5032252421A610123037703689B6991
:102D20009B0763D000F04EFD0023237723681A69C8
:102D3000520712D5DA6852070FD5052252421A619E
:102D40000223237723689A69C0239B001A4253D039
:102D5000200000F037FD0023237723681A6912074B
:102D600010D5DA6812070DD5092252421A610423E0
:102D700023772368DB699B0745D0200000F022FD04
:102D80000023237723681A69D20612D5DA68D2069F
:102D90000FD5112252421A61082323772368DA697A
:102DA000C0239B001A4235D0200000F00BFD002309
:102DB000237723681A69D20702D5DA68D20730D49C
:102DC00023681A69120602D5DA68120630D423681D
:102DD0001A69520602D5DA68520630D423681A6995
:102DE000920602D5DA68920630D410BDFFF785FF4F
:102DF0002000FFF783FF97E72000FFF77EFF20000A
:102E0000FFF77CFFA7E72000FFF777FF2000FFF721
:102E100075FFB5E72000FFF770FF2000FFF76EFF9A
:102E2000C5E7022252421A61200000F0EDFCC7E71C
:102E3000812252421A61200000F065FAC7E7412260
:102E400052421A612000FFF75AFFC7E7212252427F
:102E50001A61200000F056FAC7E7000003681A4A1A
:102E6000904202D0194A904203D1702293434A689B
:102E70001343154A90420BD0144A904208D0144A8A
:102E8000904205D0134A904202D0134A904203D197
:102E9000124A1340CA681343802293434A6913437A
:102EA00003608B68C3620B688362074B984205D04E
:102EB000084B984202D0084B984201D10B6903633A
:102EC000012343617047C046002C014000040040CC
:102ED000002000400044014000480140FFFCFFFF8B
:102EE00070B5041E14D03D23C35C002B0AD03D25D1
:102EF00002236355211D2068FFF7B0FF01236355AE
:102F0000002070BD3C330022C25400F0F9FEEEE711
:102F10000120F6E770B5041E14D03D23C35C002BDE
:102F20000AD03D2502236355211D2068FFF796FF37
:102F300001236355002070BD3C330022C254FFF7CB
:102F4000B7FEEEE70120F6E770B51400026A01252E
:102F5000AA4302628269056A0C4EB04205D00C4E4B
:102F6000B04202D00124224302E00326B2432243AE
:102F7000F024A2431C01FF2323401A430A24A54343
:102F80000C402C438261046270BDC046002C01409D
:102F90000004004070B504000D003C23C35C012B0D
:102FA00058D03C230121C15401330131C154002ABE
:102FB0001CD0042A2BD0082A3BD0EB686A68296809
:102FC0000068FFF74BFE2268D36923490B40D361A9
:102FD0002168CB69AA6812021343CB613D23012209
:102FE000E254013B0022E254002070BDEB686A68A5
:102FF00029680068FFF7A8FF226893690C218B43BA
:10300000936122689369A9680B439361E6E7EB68D3
:103010006A6829680068FFF7D3FD226893690E4942
:103020000B40936121688B69AA68120213438B617C
:10303000D4E7EB686A6829680068FFF7F1FD226849
:10304000D3690C218B43D3612268D369A9680B43F0
:10305000D361C3E70220C8E7FFF3FFFF30B5846800
:10306000034D2C401B021A4311432143816030BDA4
:10307000FF00FFFF10B504003C23C35C012B00D10F
:103080007FE03C230122C25401330132C254026862
:1030900093683D48034093600B68402B5DD010D986
:1030A000702B43D020D8502B4DD0602B36D1CA681E
:1030B00049682068FFF7A0FD60212068FFF7F0FD58
:1030C0002CE0102B53D008D9202B55D0302B25D1F4
:1030D00030212068FFF7E4FD20E0002B1ED1002105
:1030E0002068FFF7DDFD19E080225201934210D0E5
:1030F00080229201934211D1CB684A688968206886
:10310000FFF7ACFF226891688023DB010B439360DB
:1031100004E02268936807218B4393603D230122DA
:10312000E254013B0022E254002010BDCB684A6803
:1031300089682068FFF792FF2268936877218B43A4
:103140000B439360EAE7CA6849682068FFF726FDE9
:1031500050212068FFF7A4FDE0E7CA6849682068AD
:10316000FFF71CFD40212068FFF79AFDD6E71021EC
:103170002068FFF795FDD1E720212068FFF790FD3B
:10318000CCE70220D1E7C0468800FFFF70B5026897
:1031900093687024A3434C6823430724A3430C681B
:1031A000234393604B68502B1FD00AD9602B22D049
:1031B000702B05D10B698A68C9680068FFF74EFF5C
:1031C00070BD402BFCD103681D6A1A6A0124A2431A
:1031D0001A620468A369F02293431A000B691B0169
:1031E0001343A36103681D62EAE70A6989680068FE
:1031F000FFF7D4FCE4E70A6989680068FFF7FCFC84
:10320000DEE70000F8B504003C23C35C012B16D0B8
:103210003C25012747553D2602238355FFF7B6FF7E
:103220002268D36840218B43D3602268D368054964
:103230000B40D360A755002363550020F8BD022042
:10324000FCE7C046FFBFFFFF10B501248C40036AB6
:10325000A3430362036A8A401A43026210BD10B599
:10326000040004291CD009D908291FD00C290CD12D
:103270000268D36810200343D36006E0002904D11C
:103280000268D36802200343D36001222068FFF75D
:10329000DBFF2268136801210B431360002010BD7F
:1032A0000268D36804200343D360EEE70268D36862
:1032B00008200343D360E8E7F0B53C23C35C012B4F
:1032C0001ED03C22012585543D2402230355066867
:1032D00073687027BB437360066873680F683B436D
:1032E00073600668B3688027BB43B3600668B36841
:1032F00049680B43B3600555002383540020F0BD9B
:103300000220FCE77047704700B583B0064B1B688E
:1033100058430649FCF7F8FE0190019B5A1E0192A2
:10332000002BFAD103B000BD0000002040420F0086
:1033300070B59024E405636920252B436361012067
:10334000FFF7E2FF6369AB43636170BD43B2002BDB
:103350001EDB9022D205536908218B43536143063B
:103360001DD59022D205536904210B435361830676
:103370001CD59022D205536902210B435361C30629
:103380001BD49022D205536901218B4353617047AE
:103390009022D205536908210B435361DFE7902245
:1033A000D205536904218B435361E0E79022D20593
:1033B000536902218B435361E1E79022D20553699F
:1033C00001210B435361E2E703071ED59022D2058A
:1033D000536908210B43536143071DD59022D20541
:1033E000536904210B43536183071CD59022D205F6
:1033F000536902210B435361C3071BD49022D205AA
:10340000536901218B43536170479022D205536960
:1034100008218B435361DFE79022D20553690421D1
:103420008B435361E0E79022D205536902218B431D
:103430005361E1E79022D205536901210B435361A7
:10344000E2E710B50400FFF781FFFFF771FF2000EE
:10345000FFF7BAFFFFF76CFF0520FFF755FF10BD20
:1034600010B504000C4A536902218B435361FFF7E6
:103470006DFFFFF75DFF0520FFF746FFFFF758FFE1
:103480000520FFF741FF2000FFF79EFFFFF750FFE9
:103490000520FFF739FF10BD00040048012304E0B8
:1034A0009A00D21853000138C0B20028F8D1180091
:1034B0007047000010B5064A536902218B435361DF
:1034C0000120FFF7BEFFC820FFF71EFF10BDC0465A
:1034D0000004004810B5064A536902218B4353612A
:1034E0000220FFF7AEFFC820FFF70EFF10BDC04659
:1034F0000004004810B5094A536902218B43536107
:103500003C2802D03E2804D010BD1020FFF799FFC0
:10351000FAE71420FFF795FFF6E7C04600040048DD
:1035200010B5164A53690224A3435361052809D8EC
:103530008000134B1B589F46802040420843C0B276
:10354000FFF77FFF10BD402040420843C0B2FFF7A5
:1035500078FFF7E7702040420843C0B2FFF771FFE1
:10356000F0E7302040420843C0B2FFF76AFFE9E7C6
:1035700040200843FFF765FFE4E7C0460004004829
:10358000D83E000810B5044A536902218B435361A9
:10359000FFF757FF10BDC0460004004810B5054AAC
:1035A000536902210B435361FFF74BFF0120FFF7E3
:1035B000ABFE10BD0004004870B505000FE000210F
:1035C0000838FFF7ADFF09E0FFF784FF06E03E2073
:1035D000FFF790FF0134E4B2032CF8D901352878C5
:1035E00000280AD00A28EAD00D28EDD0092802D0F8
:1035F000FFF7D4FFF2E70024EEE770BD70B5051EBB
:1036000001DB012407E02D20FFF7C8FF6D42F8E73A
:10361000A3001B195C0021002800FCF7FFFD09280E
:10362000F6DC3030C0B2FFF7B9FF0A212000FCF70A
:10363000F5FD040012E0A3001B1959002800FCF757
:10364000D3FE08002100FCF7E9FD3030C0B2FFF7DF
:10365000A5FF0A212000FCF7E1FD0400002CEADCB4
:1036600070BD70B50500002917D00139C8B2FFF749
:1036700015FF04000FE021002800FCF745FD0A219A
:10368000FCF7C8FD3031C8B2FFF788FF0A212000DF
:10369000FCF73AFD0400002CEDD170BD70B5041CA0
:1036A0000D000021FCF7F6FE002807D1201CFDF7D5
:1036B000EDFAFFF7A3FF002D08D170BD2D20FFF715
:1036C0006DFF80231B069C466444EFE72E20FFF726
:1036D00065FF2800FFF7E2FEFDF7F8FA211CFCF772
:1036E000DFFFFCF7FFFE2900FFF7BBFFE5E710B5A2
:1036F0003020FFF7A6FEC82464002000FFF704FE78
:103700003020FFF79EFE2000FFF7FEFD2820FFF788
:10371000A7FE0C20FFF736FF0620FFF733FFFFF769
:10372000C9FEFFF7D7FE10BDF0B589B01422002105
:1037300003A800F0ADFB204B5A698025ED032A4316
:103740005A615A692A400092009A59698020800281
:10375000014359615A6902400192019A5A698021D4
:10376000C9020A435A615B690B400293029B134CE6
:103770009027FF05002221003800FEF7DDFE002221
:1037800002210F48FEF7D8FE039401260496002478
:103790000594069403A93800FEF708FE022303935C
:1037A00004960594069403A90548FEF7FFFD28003A
:1037B000FEF7C8FE09B0F0BD001002403F02000055
:1037C0000004004810B50E4B984200D010BD037F96
:1037D000012BFBD10021FFF76CFA0A4A137880B263
:1037E0005B00D318988013780133DBB21370072B7A
:1037F000ECD9130000221A7001321A75E6E7C046B0
:103800005C000020280000207047884202D2081A7D
:1038100080B27047401A80B2FBE7000070B5002804
:1038200007D01A4B00221A701A75184B1B7D002BFB
:10383000FBD00025002420E0E4180132D2B2072A90
:103840000BD85600114B9B199B889BB2994200D212
:1038500019009842F0D91800EEE7FFF7D6FF632869
:1038600012D9FFF727FE094B00221A701A75FA20A9
:103870008000FEF733FD0135EDB2092D04D800229A
:10388000002103480024DAE7200070BD2800002052
:10389000FFFF000070B504000D00FFF779F9FEF797
:1038A00019FC0022064BFDF751FA02000B00200024
:1038B0002900FDF74BFA02000B00FDF751FE70BD29
:1038C00080842E41F8B514001D0002000B00FDF7A6
:1038D00047FE06000F0022002B0020002900FDF704
:1038E0003FFE32003B00FEF7ADF832003B00FDF733
:1038F0002DFA04000D0000220023FCF791FD0028A2
:1039000002D120002900F8BD00240025F9E70000BD
:1039100070B59024E405012210212000FEF70CFE72
:103920006420FEF7DBFC0120FFF778FFFEF7D2FBF7
:103930000022FF239B05FDF713FE1D4EB061F161D0
:103940008025AD00012229002000FEF7F5FD64204E
:10395000FEF7C4FC0120FFF761FFFEF7BBFB00226E
:10396000FF239B05FDF7FCFD3062716200222900F8
:103970002000FEF7E1FD002210212000FEF7DCFD13
:10398000C820FEF7ABFC306A716AB269F369FCF7D4
:103990005BFD002806D1FFF78DFDFA20C000FEF781
:1039A0009DFCB6E7024B1B7D002BFBD070BDC046D3
:1039B00028000020F0B583B006000F0001AB284AB4
:1039C0001188198092789A7075221A700022254BFE
:1039D0003900FCF739FD00280AD00022214B3000C5
:1039E0003900FDF7B3F906000F0001AB6D221A7024
:1039F00000221D4B30003900FCF730FD002809D1B2
:103A000000221A4B30003900FCF728FD00280FD1A6
:103A1000032500E0052500210120FFF781FD144862
:103A2000FFF7CAFD00210220FFF77AFD002406E01F
:103A30000425F0E72020FFF7B1FD0134E4B20623AE
:103A40005B1B9C42F6DB30003900FEF775FB012161
:103A5000FFF724FE01A8FFF7AFFD03B0F0BDC0469D
:103A6000D03F000800408F40000059400000244033
:103A7000C83F0008F0B583B00020FFF7CFFE060076
:103A80002D4B984246D8FEF725FB0022FF239B05CD
:103A9000FDF766FD00900191284F386A796AFFF7BB
:103AA000F9FE04000D00B869F969FFF7F3FE0200A2
:103AB0000B0020002900FDF7C5FF214A214BFDF72F
:103AC0004FFD04000D00009A019BB869F969FFF7EA
:103AD000F9FE22002B00FDF743FDFFF76BFFFEF719
:103AE000F7FBBB6A984208D2144B998D00290DD080
:103AF000B0B2FFF78AFE042808D9FEF7E9FB124BA3
:103B00009C4660440D4B9862FFF702FF0B4B9E856D
:103B100003B0F0BDFFF7CEFC0C48FFF74DFD0021D0
:103B20000220FFF7FDFC0A48FFF746FDFA2080005F
:103B3000FEF7D4FBECE7C0460F0905002800002083
:103B4000037E23AC12C3374010270000D43F000887
:103B5000D83F0008FEE7000000B591B01022002118
:103B60000CA800F095F91422002107A800F090F9A4
:103B70000822002105A800F08BF91022002101A8DD
:103B800000F086F92748284B0360002343608360D8
:103B9000264AC26003618361FFF7A2F9002834D18D
:103BA00080235B010C930CA91E48FFF763FA0028E1
:103BB0002DD11C48FFF7AEF900282AD10423079322
:103BC0004C3308934E3B099300230B9307A91548E8
:103BD000FFF718FB00281ED100230593069305A9C3
:103BE0001048FFF769FB002817D102230193013B1E
:103BF0000293002303930493002201A90948FFF7CD
:103C0000C9F900280BD111B000BDFFF7A3FFFFF7E2
:103C1000A1FFFFF79FFFFFF79DFFFFF79BFFFFF758
:103C200099FFC0465C00002000040040FFFF000038
:103C300000B591B02822002106A800F029F9102231
:103C40000021684600F024F9012304930593013311
:103C50000C9380235B020D938023DB020E9304A858
:103C6000FEF784FC00280ED107230093053B019347
:103C700000230293039301216846FEF7DFFE00282C
:103C800003D111B000BDFFF765FFFFF763FF000030
:103C900010B5FEF705FBFFF7CBFFFFF745FDFFF77C
:103CA0005BFFFA204000FEF719FBFFF720FD002123
:103CB0000648FFF7D4FAFFF7FDFBFFF729FEFFF7F1
:103CC000D9FEFA208000FEF709FBF8E75C0000202F
:103CD00082B00A4B996901221143996199690A409E
:103CE0000092009ADA69802149050A43DA61DB69AA
:103CF0000B400193019B02B07047C0460010024088
:103D000010B588B004001422002103A800F0C0F808
:103D10002268164B9A4201D008B010BD144BD969E5
:103D200002221143D961D969114001910199596960
:103D300080208002014359615B6903400293029B2A
:103D40004023039304923D3B0693023B079390204C
:103D500003A9C005FEF72AFB002200211020FEF770
:103D6000CFFA1020FEF7FCFAD6E7C0460004004068
:103D7000001002407047FEE77047704710B5FEF72D
:103D80009FFA10BD10B50248FEF7BAFF10BDC0463D
:103D90005C000020114B1A6801210A431A605A681E
:103DA0000F4802405A601A680E4802401A601A68AA
:103DB0000D4802401A605A680C4802405A60DA6A9C
:103DC0000F208243DA621A6B094802401A635A6B69
:103DD0008A435A6300229A607047C046001002402E
:103DE0000CB8FF08FFFFF6FEFFFFFBFFFFFFC0FF61
:103DF000ECFEFFFF0D4885460D480E490E4A002394
:103E000002E0D458C4500433C4188C42F9D30B4A8E
:103E10000B4C002301E013600432A242FBD3FFF7F6
:103E2000B9FF00F011F8FFF733FFFEE700100020A4
:103E30000000002004000020E83F000808000020E7
:103E40009C000020FEE7000070B500260C4D0D4CD4
:103E5000641BA410A64209D1002600F021F80A4DE7
:103E60000A4C641BA410A64205D170BDB300EB58E8
:103E700098470136EEE7B300EB5898470136F2E772
:103E8000E03F0008E03F0008E03F0008E43F000892
:103E900003001218934200D1704719700133F9E7FB
:103EA000F8B5C046F8BC08BC9E467047F8B5C04699
:083EB000F8BC08BC9E467047F7
:103EB80002030405060708090A0B0C0D0E0F101063
:103EC8000102030405060708090A0B0C0D0E0F1062
:103ED80044350008383500084635000854350008D0
:103EE800623500087035000800000000000000007E
:103EF8000102030406070809000000000102030488
:103F080098070008420700084207000870080008E0
:103F18003E0700083E070008660800087008000809
:103F28003E070008660800083E07000870080008F9
:103F38007408000874080008740800087C08000861
:103F4800F00F0008620E0008A60E00080A0E00080E
:103F5800A60E0008960F0008A60E00080A0E000814
:103F6800620E0008620E0008960F00080A0E00088C
:103F7800020E0008020E0008020E0008A40F000836
:103F8800181700081A1600081A1600083819000829
:103F9800141600081416000820190008381900081B
:103FA800141600082019000814160008381900080B
:103FB8002E1900082E1900082E1900083C190008AF
:103FC800496E647563742E0078480000204E4F00D7
:083FD80076616C7565000000C4
:043FE000E9000008EC
:043FE400C100000810
:043FE80000127A0049
:0400000508003DF5BD
:00000001FF
